{
  "contractName": "ShitcoinPreSale",
  "abi": [
    {
      "inputs": [
        {
          "internalType": "contract Shitcoin",
          "name": "_tokenContract",
          "type": "address"
        },
        {
          "internalType": "uint256",
          "name": "_tokenPrice",
          "type": "uint256"
        },
        {
          "internalType": "uint256",
          "name": "_investorHardCap",
          "type": "uint256"
        },
        {
          "internalType": "uint256",
          "name": "_tokensToSell",
          "type": "uint256"
        }
      ],
      "stateMutability": "nonpayable",
      "type": "constructor"
    },
    {
      "anonymous": false,
      "inputs": [
        {
          "indexed": false,
          "internalType": "address",
          "name": "_buyer",
          "type": "address"
        },
        {
          "indexed": false,
          "internalType": "uint256",
          "name": "_amount",
          "type": "uint256"
        }
      ],
      "name": "Sell",
      "type": "event"
    },
    {
      "inputs": [
        {
          "internalType": "address",
          "name": "",
          "type": "address"
        }
      ],
      "name": "contributions",
      "outputs": [
        {
          "internalType": "uint256",
          "name": "",
          "type": "uint256"
        }
      ],
      "stateMutability": "view",
      "type": "function",
      "constant": true
    },
    {
      "inputs": [],
      "name": "investorHardCap",
      "outputs": [
        {
          "internalType": "uint256",
          "name": "",
          "type": "uint256"
        }
      ],
      "stateMutability": "view",
      "type": "function",
      "constant": true
    },
    {
      "inputs": [],
      "name": "tokenContract",
      "outputs": [
        {
          "internalType": "contract Shitcoin",
          "name": "",
          "type": "address"
        }
      ],
      "stateMutability": "view",
      "type": "function",
      "constant": true
    },
    {
      "inputs": [],
      "name": "tokenPrice",
      "outputs": [
        {
          "internalType": "uint256",
          "name": "",
          "type": "uint256"
        }
      ],
      "stateMutability": "view",
      "type": "function",
      "constant": true
    },
    {
      "inputs": [],
      "name": "tokensSold",
      "outputs": [
        {
          "internalType": "uint256",
          "name": "",
          "type": "uint256"
        }
      ],
      "stateMutability": "view",
      "type": "function",
      "constant": true
    },
    {
      "inputs": [],
      "name": "tokensToSell",
      "outputs": [
        {
          "internalType": "uint256",
          "name": "",
          "type": "uint256"
        }
      ],
      "stateMutability": "view",
      "type": "function",
      "constant": true
    },
    {
      "stateMutability": "payable",
      "type": "receive",
      "payable": true
    },
    {
      "inputs": [
        {
          "internalType": "uint256",
          "name": "_numberOfTokens",
          "type": "uint256"
        }
      ],
      "name": "buyTokens",
      "outputs": [],
      "stateMutability": "payable",
      "type": "function",
      "payable": true
    },
    {
      "inputs": [],
      "name": "end",
      "outputs": [],
      "stateMutability": "nonpayable",
      "type": "function"
    }
  ],
  "bytecode": "0x60806040523480156200001157600080fd5b50604051620010cb380380620010cb833981810160405281019062000037919062000105565b336000806101000a81548173ffffffffffffffffffffffffffffffffffffffff021916908373ffffffffffffffffffffffffffffffffffffffff16021790555083600160006101000a81548173ffffffffffffffffffffffffffffffffffffffff021916908373ffffffffffffffffffffffffffffffffffffffff16021790555082600281905550816005819055508060048190555050505050620001f7565b600081519050620000e881620001c3565b92915050565b600081519050620000ff81620001dd565b92915050565b600080600080608085870312156200011c57600080fd5b60006200012c87828801620000d7565b94505060206200013f87828801620000ee565b93505060406200015287828801620000ee565b92505060606200016587828801620000ee565b91505092959194509250565b60006200017e8262000199565b9050919050565b6000620001928262000171565b9050919050565b600073ffffffffffffffffffffffffffffffffffffffff82169050919050565b6000819050919050565b620001ce8162000185565b8114620001da57600080fd5b50565b620001e881620001b9565b8114620001f457600080fd5b50565b610ec480620002076000396000f3fe60806040526004361061007f5760003560e01c806355a373d61161004e57806355a373d6146104265780637ff9b59614610451578063ed5db8741461047c578063efbe1c1c146104a757610372565b80633610724e146103775780633d9566911461039357806342e94c90146103be578063518ab2a8146103fb57610372565b36610372576000600254600254346100979190610dba565b6100a19190610c59565b600254346100af9190610c59565b6100b99190610ce4565b905080600160009054906101000a900473ffffffffffffffffffffffffffffffffffffffff1673ffffffffffffffffffffffffffffffffffffffff166370a08231306040518263ffffffff1660e01b81526004016101179190610b60565b60206040518083038186803b15801561012f57600080fd5b505afa158015610143573d6000803e3d6000fd5b505050506040513d601f19601f820116820180604052508101906101679190610afb565b101561017257600080fd5b60055481600660003373ffffffffffffffffffffffffffffffffffffffff1673ffffffffffffffffffffffffffffffffffffffff168152602001908152602001600020546101c09190610c03565b11156101cb57600080fd5b600160009054906101000a900473ffffffffffffffffffffffffffffffffffffffff1673ffffffffffffffffffffffffffffffffffffffff1663a9059cbb33836040518363ffffffff1660e01b8152600401610228929190610ba4565b602060405180830381600087803b15801561024257600080fd5b505af1158015610256573d6000803e3d6000fd5b505050506040513d601f19601f8201168201806040525081019061027a9190610aa9565b61028357600080fd5b80600360008282546102959190610c03565b9250508190555080600660003373ffffffffffffffffffffffffffffffffffffffff1673ffffffffffffffffffffffffffffffffffffffff16815260200190815260200160002060008282546102eb9190610c03565b925050819055507f5e5e995ce3133561afceaa51a9a154d5db228cd7525d34df5185582c18d3df093382604051610323929190610ba4565b60405180910390a16004546003541061036f5760008054906101000a900473ffffffffffffffffffffffffffffffffffffffff1673ffffffffffffffffffffffffffffffffffffffff16ff5b50005b600080fd5b610391600480360381019061038c9190610ad2565b6104be565b005b34801561039f57600080fd5b506103a861078c565b6040516103b59190610be8565b60405180910390f35b3480156103ca57600080fd5b506103e560048036038101906103e09190610a80565b610792565b6040516103f29190610be8565b60405180910390f35b34801561040757600080fd5b506104106107aa565b60405161041d9190610be8565b60405180910390f35b34801561043257600080fd5b5061043b6107b0565b6040516104489190610bcd565b60405180910390f35b34801561045d57600080fd5b506104666107d6565b6040516104739190610be8565b60405180910390f35b34801561048857600080fd5b506104916107dc565b60405161049e9190610be8565b60405180910390f35b3480156104b357600080fd5b506104bc6107e2565b005b6104ca816002546109f5565b34146104d557600080fd5b80600160009054906101000a900473ffffffffffffffffffffffffffffffffffffffff1673ffffffffffffffffffffffffffffffffffffffff166370a08231306040518263ffffffff1660e01b81526004016105319190610b60565b60206040518083038186803b15801561054957600080fd5b505afa15801561055d573d6000803e3d6000fd5b505050506040513d601f19601f820116820180604052508101906105819190610afb565b101561058c57600080fd5b60055481600660003373ffffffffffffffffffffffffffffffffffffffff1673ffffffffffffffffffffffffffffffffffffffff168152602001908152602001600020546105da9190610c03565b11156105e557600080fd5b600160009054906101000a900473ffffffffffffffffffffffffffffffffffffffff1673ffffffffffffffffffffffffffffffffffffffff1663a9059cbb33836040518363ffffffff1660e01b8152600401610642929190610ba4565b602060405180830381600087803b15801561065c57600080fd5b505af1158015610670573d6000803e3d6000fd5b505050506040513d601f19601f820116820180604052508101906106949190610aa9565b61069d57600080fd5b80600360008282546106af9190610c03565b9250508190555080600660003373ffffffffffffffffffffffffffffffffffffffff1673ffffffffffffffffffffffffffffffffffffffff16815260200190815260200160002060008282546107059190610c03565b925050819055507f5e5e995ce3133561afceaa51a9a154d5db228cd7525d34df5185582c18d3df09338260405161073d929190610ba4565b60405180910390a1600454600354106107895760008054906101000a900473ffffffffffffffffffffffffffffffffffffffff1673ffffffffffffffffffffffffffffffffffffffff16ff5b50565b60045481565b60066020528060005260406000206000915090505481565b60035481565b600160009054906101000a900473ffffffffffffffffffffffffffffffffffffffff1681565b60025481565b60055481565b60008054906101000a900473ffffffffffffffffffffffffffffffffffffffff1673ffffffffffffffffffffffffffffffffffffffff163373ffffffffffffffffffffffffffffffffffffffff161461083a57600080fd5b600160009054906101000a900473ffffffffffffffffffffffffffffffffffffffff1673ffffffffffffffffffffffffffffffffffffffff1663a9059cbb60008054906101000a900473ffffffffffffffffffffffffffffffffffffffff16600160009054906101000a900473ffffffffffffffffffffffffffffffffffffffff1673ffffffffffffffffffffffffffffffffffffffff166370a08231306040518263ffffffff1660e01b81526004016108f49190610b60565b60206040518083038186803b15801561090c57600080fd5b505afa158015610920573d6000803e3d6000fd5b505050506040513d601f19601f820116820180604052508101906109449190610afb565b6040518363ffffffff1660e01b8152600401610961929190610b7b565b602060405180830381600087803b15801561097b57600080fd5b505af115801561098f573d6000803e3d6000fd5b505050506040513d601f19601f820116820180604052508101906109b39190610aa9565b6109bc57600080fd5b60008054906101000a900473ffffffffffffffffffffffffffffffffffffffff1673ffffffffffffffffffffffffffffffffffffffff16ff5b600080821480610a1d575082828385610a0e9190610c8a565b925082610a1b9190610c59565b145b610a2657600080fd5b92915050565b600081359050610a3b81610e49565b92915050565b600081519050610a5081610e60565b92915050565b600081359050610a6581610e77565b92915050565b600081519050610a7a81610e77565b92915050565b600060208284031215610a9257600080fd5b6000610aa084828501610a2c565b91505092915050565b600060208284031215610abb57600080fd5b6000610ac984828501610a41565b91505092915050565b600060208284031215610ae457600080fd5b6000610af284828501610a56565b91505092915050565b600060208284031215610b0d57600080fd5b6000610b1b84828501610a6b565b91505092915050565b610b2d81610d60565b82525050565b610b3c81610d18565b82525050565b610b4b81610d72565b82525050565b610b5a81610d56565b82525050565b6000602082019050610b756000830184610b33565b92915050565b6000604082019050610b906000830185610b24565b610b9d6020830184610b51565b9392505050565b6000604082019050610bb96000830185610b33565b610bc66020830184610b51565b9392505050565b6000602082019050610be26000830184610b42565b92915050565b6000602082019050610bfd6000830184610b51565b92915050565b6000610c0e82610d56565b9150610c1983610d56565b9250827fffffffffffffffffffffffffffffffffffffffffffffffffffffffffffffffff03821115610c4e57610c4d610deb565b5b828201905092915050565b6000610c6482610d56565b9150610c6f83610d56565b925082610c7f57610c7e610e1a565b5b828204905092915050565b6000610c9582610d56565b9150610ca083610d56565b9250817fffffffffffffffffffffffffffffffffffffffffffffffffffffffffffffffff0483118215151615610cd957610cd8610deb565b5b828202905092915050565b6000610cef82610d56565b9150610cfa83610d56565b925082821015610d0d57610d0c610deb565b5b828203905092915050565b6000610d2382610d36565b9050919050565b60008115159050919050565b600073ffffffffffffffffffffffffffffffffffffffff82169050919050565b6000819050919050565b6000610d6b82610d96565b9050919050565b6000610d7d82610d84565b9050919050565b6000610d8f82610d36565b9050919050565b6000610da182610da8565b9050919050565b6000610db382610d36565b9050919050565b6000610dc582610d56565b9150610dd083610d56565b925082610de057610ddf610e1a565b5b828206905092915050565b7f4e487b7100000000000000000000000000000000000000000000000000000000600052601160045260246000fd5b7f4e487b7100000000000000000000000000000000000000000000000000000000600052601260045260246000fd5b610e5281610d18565b8114610e5d57600080fd5b50565b610e6981610d2a565b8114610e7457600080fd5b50565b610e8081610d56565b8114610e8b57600080fd5b5056fea26469706673582212200a48ec3f6d8941917cf96a574141107002f02515c7b10252f34f4921989a5e4d64736f6c63430008040033",
  "immutableReferences": {},
  "source": "// SPDX-License-Identifier: MIT\r\npragma solidity ^0.8.0;\r\n\r\nimport \"./Shitcoin.sol\";\r\n\r\ncontract ShitcoinPreSale {\r\n    address payable admin;\r\n    Shitcoin public tokenContract;\r\n    uint256 public tokenPrice;\r\n    uint256 public tokensSold;\r\n    uint256 public tokensToSell;\r\n    \r\n    uint256 public investorHardCap;\r\n    mapping(address => uint256) public contributions;\r\n    \r\n    event Sell(address _buyer, uint256 _amount);\r\n    \r\n    constructor (Shitcoin _tokenContract, uint256 _tokenPrice, uint256 _investorHardCap, uint256 _tokensToSell) {\r\n        admin = payable(msg.sender);\r\n        tokenContract = _tokenContract;\r\n        tokenPrice = _tokenPrice;\r\n        investorHardCap = _investorHardCap;\r\n        tokensToSell = _tokensToSell;\r\n    }\r\n\r\n    receive () external payable {\r\n        uint256 _numberOfTokens = (msg.value/tokenPrice) - ((msg.value % tokenPrice) / tokenPrice);\r\n        require(tokenContract.balanceOf(address(this)) >= _numberOfTokens);\r\n        require(contributions[msg.sender] + _numberOfTokens <= investorHardCap);\r\n        require(tokenContract.transfer(msg.sender, _numberOfTokens));\r\n        \r\n        tokensSold += _numberOfTokens;\r\n        contributions[msg.sender] += _numberOfTokens;\r\n\r\n        emit Sell(msg.sender, _numberOfTokens);\r\n        \r\n        if(tokensSold >= tokensToSell) {\r\n            selfdestruct(admin);\r\n        }\r\n    }\r\n    \r\n    function multiply(uint x, uint y) internal pure returns (uint z) {\r\n        require(y == 0 || (z = x * y) / y == x);\r\n    }\r\n    \r\n    function buyTokens(uint256 _numberOfTokens) public payable {\r\n        require(msg.value == multiply(_numberOfTokens, tokenPrice));\r\n        require(tokenContract.balanceOf(address(this)) >= _numberOfTokens);\r\n        require(contributions[msg.sender] + _numberOfTokens <= investorHardCap);\r\n        require(tokenContract.transfer(msg.sender, _numberOfTokens));\r\n        \r\n        tokensSold += _numberOfTokens;\r\n        contributions[msg.sender] += _numberOfTokens;\r\n\r\n        emit Sell(msg.sender, _numberOfTokens);\r\n        \r\n        if(tokensSold >= tokensToSell) {\r\n            selfdestruct(admin);\r\n        }\r\n    }\r\n\r\n    function end() public {\r\n        require(msg.sender == admin);\r\n        require(tokenContract.transfer(admin, tokenContract.balanceOf(address(this))));\r\n        selfdestruct(admin);\r\n    }\r\n}",
  "sourcePath": "D:/Usuario/Matias/ShitcoinProject/Shitcoin/contracts/ShitcoinPreSale.sol",
  "compiler": {
    "name": "solc",
    "version": "0.8.4+commit.c7e474f2.Emscripten.clang"
  },
  "schemaVersion": "3.3.4",
  "updatedAt": "2021-05-30T17:02:47.005Z",
  "networkType": "ethereum",
  "devdoc": {
    "kind": "dev",
    "methods": {},
    "version": 1
  },
  "userdoc": {
    "kind": "user",
    "methods": {},
    "version": 1
  }
}